{
  "contracts/Boxv2.sol": {
    "BoxV2": {
      "abi": [
        {
          "inputs": [],
          "stateMutability": "nonpayable",
          "type": "constructor"
        },
        {
          "anonymous": false,
          "inputs": [
            {
              "indexed": true,
              "internalType": "uint256",
              "name": "value",
              "type": "uint256"
            }
          ],
          "name": "ValueChange",
          "type": "event"
        },
        {
          "inputs": [],
          "name": "getValue",
          "outputs": [
            {
              "internalType": "uint256",
              "name": "",
              "type": "uint256"
            }
          ],
          "stateMutability": "view",
          "type": "function"
        },
        {
          "inputs": [],
          "name": "increment",
          "outputs": [],
          "stateMutability": "nonpayable",
          "type": "function"
        },
        {
          "inputs": [
            {
              "internalType": "uint256",
              "name": "_value",
              "type": "uint256"
            }
          ],
          "name": "setValue",
          "outputs": [],
          "stateMutability": "nonpayable",
          "type": "function"
        },
        {
          "inputs": [],
          "name": "version",
          "outputs": [
            {
              "internalType": "uint256",
              "name": "",
              "type": "uint256"
            }
          ],
          "stateMutability": "pure",
          "type": "function"
        }
      ],
      "devdoc": {
        "kind": "dev",
        "methods": {},
        "version": 1
      },
      "evm": {
        "bytecode": {
          "linkReferences": {},
          "object": "608060405234801561001057600080fd5b5061016c806100206000396000f3fe608060405234801561001057600080fd5b506004361061004c5760003560e01c8063209652551461005157806354fd4d5014610067578063552410771461006e578063d09de08a14610083575b600080fd5b6000545b60405190815260200160405180910390f35b6002610055565b61008161007c3660046100f7565b61008b565b005b6100816100bb565b600081815560405182917fa08786470df18dce77f2c3a12acf2022fd1ff8b97fe62396a54ee458dcebef0491a250565b6000546100c9906001610110565b60008181556040517fa08786470df18dce77f2c3a12acf2022fd1ff8b97fe62396a54ee458dcebef049190a2565b60006020828403121561010957600080fd5b5035919050565b6000821982111561013157634e487b7160e01b600052601160045260246000fd5b50019056fea2646970667358221220af8a8de4e32b9862a6d44d69d4844969337d82c5a38a886826dd9c54042ca97864736f6c634300080a0033",
          "opcodes": "PUSH1 0x80 PUSH1 0x40 MSTORE CALLVALUE DUP1 ISZERO PUSH2 0x10 JUMPI PUSH1 0x0 DUP1 REVERT JUMPDEST POP PUSH2 0x16C DUP1 PUSH2 0x20 PUSH1 0x0 CODECOPY PUSH1 0x0 RETURN INVALID PUSH1 0x80 PUSH1 0x40 MSTORE CALLVALUE DUP1 ISZERO PUSH2 0x10 JUMPI PUSH1 0x0 DUP1 REVERT JUMPDEST POP PUSH1 0x4 CALLDATASIZE LT PUSH2 0x4C JUMPI PUSH1 0x0 CALLDATALOAD PUSH1 0xE0 SHR DUP1 PUSH4 0x20965255 EQ PUSH2 0x51 JUMPI DUP1 PUSH4 0x54FD4D50 EQ PUSH2 0x67 JUMPI DUP1 PUSH4 0x55241077 EQ PUSH2 0x6E JUMPI DUP1 PUSH4 0xD09DE08A EQ PUSH2 0x83 JUMPI JUMPDEST PUSH1 0x0 DUP1 REVERT JUMPDEST PUSH1 0x0 SLOAD JUMPDEST PUSH1 0x40 MLOAD SWAP1 DUP2 MSTORE PUSH1 0x20 ADD PUSH1 0x40 MLOAD DUP1 SWAP2 SUB SWAP1 RETURN JUMPDEST PUSH1 0x2 PUSH2 0x55 JUMP JUMPDEST PUSH2 0x81 PUSH2 0x7C CALLDATASIZE PUSH1 0x4 PUSH2 0xF7 JUMP JUMPDEST PUSH2 0x8B JUMP JUMPDEST STOP JUMPDEST PUSH2 0x81 PUSH2 0xBB JUMP JUMPDEST PUSH1 0x0 DUP2 DUP2 SSTORE PUSH1 0x40 MLOAD DUP3 SWAP2 PUSH32 0xA08786470DF18DCE77F2C3A12ACF2022FD1FF8B97FE62396A54EE458DCEBEF04 SWAP2 LOG2 POP JUMP JUMPDEST PUSH1 0x0 SLOAD PUSH2 0xC9 SWAP1 PUSH1 0x1 PUSH2 0x110 JUMP JUMPDEST PUSH1 0x0 DUP2 DUP2 SSTORE PUSH1 0x40 MLOAD PUSH32 0xA08786470DF18DCE77F2C3A12ACF2022FD1FF8B97FE62396A54EE458DCEBEF04 SWAP2 SWAP1 LOG2 JUMP JUMPDEST PUSH1 0x0 PUSH1 0x20 DUP3 DUP5 SUB SLT ISZERO PUSH2 0x109 JUMPI PUSH1 0x0 DUP1 REVERT JUMPDEST POP CALLDATALOAD SWAP2 SWAP1 POP JUMP JUMPDEST PUSH1 0x0 DUP3 NOT DUP3 GT ISZERO PUSH2 0x131 JUMPI PUSH4 0x4E487B71 PUSH1 0xE0 SHL PUSH1 0x0 MSTORE PUSH1 0x11 PUSH1 0x4 MSTORE PUSH1 0x24 PUSH1 0x0 REVERT JUMPDEST POP ADD SWAP1 JUMP INVALID LOG2 PUSH5 0x6970667358 0x22 SLT KECCAK256 0xAF DUP11 DUP14 0xE4 0xE3 0x2B SWAP9 PUSH3 0xA6D44D PUSH10 0xD4844969337D82C5A38A DUP9 PUSH9 0x26DD9C54042CA97864 PUSH20 0x6F6C634300080A00330000000000000000000000 "
        },
        "gasEstimates": {
          "creation": {
            "codeDepositCost": "72800",
            "executionCost": "123",
            "totalCost": "72923"
          },
          "external": {
            "getValue()": "2247",
            "increment()": "25610",
            "setValue(uint256)": "23497",
            "version()": "180"
          }
        },
        "methodIdentifiers": {
          "getValue()": "20965255",
          "increment()": "d09de08a",
          "setValue(uint256)": "55241077",
          "version()": "54fd4d50"
        }
      },
      "storageLayout": {
        "storage": [
          {
            "astId": 3,
            "contract": "contracts/Boxv2.sol:BoxV2",
            "label": "value",
            "offset": 0,
            "slot": "0",
            "type": "t_uint256"
          }
        ],
        "types": {
          "t_uint256": {
            "encoding": "inplace",
            "label": "uint256",
            "numberOfBytes": "32"
          }
        }
      },
      "userdoc": {
        "kind": "user",
        "methods": {},
        "version": 1
      }
    }
  }
}