{
  "contracts/Boxv1.sol": {
    "BoxV1": {
      "abi": [
        {
          "inputs": [],
          "stateMutability": "nonpayable",
          "type": "constructor"
        },
        {
          "anonymous": false,
          "inputs": [
            {
              "indexed": true,
              "internalType": "uint256",
              "name": "value",
              "type": "uint256"
            }
          ],
          "name": "ValueChange",
          "type": "event"
        },
        {
          "inputs": [],
          "name": "getValue",
          "outputs": [
            {
              "internalType": "uint256",
              "name": "",
              "type": "uint256"
            }
          ],
          "stateMutability": "view",
          "type": "function"
        },
        {
          "inputs": [
            {
              "internalType": "uint256",
              "name": "_value",
              "type": "uint256"
            }
          ],
          "name": "setValue",
          "outputs": [],
          "stateMutability": "nonpayable",
          "type": "function"
        },
        {
          "inputs": [],
          "name": "version",
          "outputs": [
            {
              "internalType": "uint256",
              "name": "",
              "type": "uint256"
            }
          ],
          "stateMutability": "pure",
          "type": "function"
        }
      ],
      "devdoc": {
        "kind": "dev",
        "methods": {},
        "version": 1
      },
      "evm": {
        "bytecode": {
          "linkReferences": {},
          "object": "608060405234801561001057600080fd5b5060ec8061001f6000396000f3fe6080604052348015600f57600080fd5b5060043610603c5760003560e01c80632096525514604157806354fd4d501460575780635524107714605d575b600080fd5b6000545b60405190815260200160405180910390f35b60016045565b606c6068366004609e565b606e565b005b600081815560405182917fa08786470df18dce77f2c3a12acf2022fd1ff8b97fe62396a54ee458dcebef0491a250565b60006020828403121560af57600080fd5b503591905056fea26469706673582212205433a5b37e063722f180d23f93bcfe42aa0df76b9550036214e2ef6ae022ff4e64736f6c634300080a0033",
          "opcodes": "PUSH1 0x80 PUSH1 0x40 MSTORE CALLVALUE DUP1 ISZERO PUSH2 0x10 JUMPI PUSH1 0x0 DUP1 REVERT JUMPDEST POP PUSH1 0xEC DUP1 PUSH2 0x1F PUSH1 0x0 CODECOPY PUSH1 0x0 RETURN INVALID PUSH1 0x80 PUSH1 0x40 MSTORE CALLVALUE DUP1 ISZERO PUSH1 0xF JUMPI PUSH1 0x0 DUP1 REVERT JUMPDEST POP PUSH1 0x4 CALLDATASIZE LT PUSH1 0x3C JUMPI PUSH1 0x0 CALLDATALOAD PUSH1 0xE0 SHR DUP1 PUSH4 0x20965255 EQ PUSH1 0x41 JUMPI DUP1 PUSH4 0x54FD4D50 EQ PUSH1 0x57 JUMPI DUP1 PUSH4 0x55241077 EQ PUSH1 0x5D JUMPI JUMPDEST PUSH1 0x0 DUP1 REVERT JUMPDEST PUSH1 0x0 SLOAD JUMPDEST PUSH1 0x40 MLOAD SWAP1 DUP2 MSTORE PUSH1 0x20 ADD PUSH1 0x40 MLOAD DUP1 SWAP2 SUB SWAP1 RETURN JUMPDEST PUSH1 0x1 PUSH1 0x45 JUMP JUMPDEST PUSH1 0x6C PUSH1 0x68 CALLDATASIZE PUSH1 0x4 PUSH1 0x9E JUMP JUMPDEST PUSH1 0x6E JUMP JUMPDEST STOP JUMPDEST PUSH1 0x0 DUP2 DUP2 SSTORE PUSH1 0x40 MLOAD DUP3 SWAP2 PUSH32 0xA08786470DF18DCE77F2C3A12ACF2022FD1FF8B97FE62396A54EE458DCEBEF04 SWAP2 LOG2 POP JUMP JUMPDEST PUSH1 0x0 PUSH1 0x20 DUP3 DUP5 SUB SLT ISZERO PUSH1 0xAF JUMPI PUSH1 0x0 DUP1 REVERT JUMPDEST POP CALLDATALOAD SWAP2 SWAP1 POP JUMP INVALID LOG2 PUSH5 0x6970667358 0x22 SLT KECCAK256 SLOAD CALLER 0xA5 0xB3 PUSH31 0x63722F180D23F93BCFE42AA0DF76B9550036214E2EF6AE022FF4E64736F6C PUSH4 0x4300080A STOP CALLER "
        },
        "gasEstimates": {
          "creation": {
            "codeDepositCost": "47200",
            "executionCost": "99",
            "totalCost": "47299"
          },
          "external": {
            "getValue()": "2247",
            "setValue(uint256)": "23497",
            "version()": "180"
          }
        },
        "methodIdentifiers": {
          "getValue()": "20965255",
          "setValue(uint256)": "55241077",
          "version()": "54fd4d50"
        }
      },
      "storageLayout": {
        "storage": [
          {
            "astId": 3,
            "contract": "contracts/Boxv1.sol:BoxV1",
            "label": "value",
            "offset": 0,
            "slot": "0",
            "type": "t_uint256"
          }
        ],
        "types": {
          "t_uint256": {
            "encoding": "inplace",
            "label": "uint256",
            "numberOfBytes": "32"
          }
        }
      },
      "userdoc": {
        "kind": "user",
        "methods": {},
        "version": 1
      }
    }
  }
}