{
  "_format": "hh-sol-artifact-1",
  "contractName": "BoxV2",
  "sourceName": "contracts/Boxv2.sol",
  "abi": [
    {
      "inputs": [],
      "stateMutability": "nonpayable",
      "type": "constructor"
    },
    {
      "anonymous": false,
      "inputs": [
        {
          "indexed": true,
          "internalType": "uint256",
          "name": "value",
          "type": "uint256"
        }
      ],
      "name": "ValueChange",
      "type": "event"
    },
    {
      "inputs": [],
      "name": "getValue",
      "outputs": [
        {
          "internalType": "uint256",
          "name": "",
          "type": "uint256"
        }
      ],
      "stateMutability": "view",
      "type": "function"
    },
    {
      "inputs": [],
      "name": "increment",
      "outputs": [],
      "stateMutability": "nonpayable",
      "type": "function"
    },
    {
      "inputs": [
        {
          "internalType": "uint256",
          "name": "_value",
          "type": "uint256"
        }
      ],
      "name": "setValue",
      "outputs": [],
      "stateMutability": "nonpayable",
      "type": "function"
    },
    {
      "inputs": [],
      "name": "version",
      "outputs": [
        {
          "internalType": "uint256",
          "name": "",
          "type": "uint256"
        }
      ],
      "stateMutability": "pure",
      "type": "function"
    }
  ],
  "bytecode": "0x608060405234801561001057600080fd5b5061016c806100206000396000f3fe608060405234801561001057600080fd5b506004361061004c5760003560e01c8063209652551461005157806354fd4d5014610067578063552410771461006e578063d09de08a14610083575b600080fd5b6000545b60405190815260200160405180910390f35b6002610055565b61008161007c3660046100f7565b61008b565b005b6100816100bb565b600081815560405182917fa08786470df18dce77f2c3a12acf2022fd1ff8b97fe62396a54ee458dcebef0491a250565b6000546100c9906001610110565b60008181556040517fa08786470df18dce77f2c3a12acf2022fd1ff8b97fe62396a54ee458dcebef049190a2565b60006020828403121561010957600080fd5b5035919050565b6000821982111561013157634e487b7160e01b600052601160045260246000fd5b50019056fea2646970667358221220af8a8de4e32b9862a6d44d69d4844969337d82c5a38a886826dd9c54042ca97864736f6c634300080a0033",
  "linkReferences": {},
  "deployedLinkReferences": {}
}